:020000040800F2
:100000000080012099580008DD580008414E000882
:10001000494E0008514E0008594E000800000000EB
:10002000000000000000000000000000614E000819
:10003000DD580008000000006D500008B14E0008B7
:10004000DD580008DD580008DD580008DD580008BC
:10005000DD580008DD580008DD580008DD580008AC
:10006000DD580008DD580008DD580008DD5800089C
:10007000DD580008DD580008DD580008DD5800088C
:10008000DD580008DD580008DD58000800000000B9
:10009000000000000000000000000000DD58000823
:1000A000DD580008DD580008DD580008DD5800085C
:1000B000DD580008DD580008DD580008DD5800084C
:1000C000DD580008DD580008DD5800082745000805
:1000D000894500088D4D0008AD4D00080000000066
:1000E000DD580008DD580008DD5800080000000059
:1000F000000000000000000000000000DD580008C3
:1001000000000000DD580008DD580008DD58000838
:1001100000000000000000000000000000000000DF
:10012000DD580008DD580008DD580008DD580008DB
:10013000DD58000800000000000000000000000082
:10014000000000000000000000000000DD58000872
:10015000DD580008DD580008DD580008CD4D0008C6
:10016000DD580008DD580008000000000000000015
:10017000000000000000000000000000000000007F
:1001800000000000DD580008000000000000000032
:04019000DD5800082E
:1001940010B5054C237833B9044B13B10448AFF3BD
:1001A40000800123237010BDB40000200000000073
:1001B4005C61000808B5034B1BB103490348AFF366
:1001C400008008BD00000000B80000205C61000849
:1001D400A3F5803A704700BF174B002B08BF134BA1
:1001E4009D46FFF7F5FF00218B460F461348144A3E
:1001F400121A05F012FD0E4B002B00D098470D4B40
:10020400002B00D098470020002104000D000D4869
:10021400002802D00C48AFF3008005F0A9FD2000AF
:10022400290001F0C9F805F059FB00BF00000800DF
:10023400000000000000000000000000B4000020E6
:10024400AC0900200000000000000000B4630008B6
:1002540000000020B4000020B4000020AC090020FD
:1002640080B500AF044B00221A7000F04BF9034B29
:10027400034A1A6000BF80BDD000002004000020A3
:100284008902000880B500AF064B01221A7000F005
:100294003DFA054B01221A70044B054A1A6000BF4F
:1002A40080BD00BFD0000020860100200400002093
:1002B400B902000880B500AF104B02221A7000F09A
:1002C40095FB0F4B1B78DBB2002B0DD00D4B1B782D
:1002D400032B03D00C4B0D4A1A6005E0084B002297
:1002E4001A700B4800F018FF0A4B1B78DBB2002B86
:1002F40002D0054B084A1A6000BF80BDD000002020
:10030400850100200800002004000020ED030008FF
:1003140000440040840100202103000880B582B01D
:1003240000AF284B03221A70274B00221A701622A2
:100334002649274804F04EFCFB1D01221946244897
:1003440004F078FCFB1D01221946214804F004FC4A
:10035400FB79184600F09CFB0346002B0FD0FB7979
:10036400184600F0BBFB0346002B08D0FB79184667
:1003740000F022FC0346002B01D0012300E00023FF
:10038400012B0CD1134B1B78013BDAB2114B1A70C1
:1003940000F05FFDFB79184600F0CCFB01E000F0B3
:1003A4004BFE0C4B1B78002B01D00B4B00E00B4B8E
:1003B4000B4A13600B4B01221A7000BF0837BD466D
:1003C40080BD00BFD0000020840100209C61000893
:1003D4000010014008000020B9020008B904000818
:1003E400040000208601002080B582B000AF284BB5
:1003F40004221A70274B00221A7016222649274815
:1004040004F0E8FBFB1D01221946244804F012FC09
:10041400FB1D01221946214804F09EFBFB79184676
:1004240000F036FB0346002B0FD0FB79184600F092
:1004340055FB0346002B08D1FB79184600F0BCFBA2
:100444000346002B01D0012300E00023012B0CD133
:10045400134B1B780133DAB2114B1A7000F072FDA2
:10046400FB79184600F066FB01E000F0E5FD0C4B5B
:100474001B78002B01D00B4B00E00B4B0B4A136095
:100484000B4B01221A7000BF0837BD4680BD00BF68
:10049400D0000020850100209C6100080044004039
:1004A40008000020B9020008B90400080400002074
:1004B4008601002080B500AF0C4B05221A7000F0B5
:1004C40095FA0B4B1B78DBB2002B05D0084B0022AE
:1004D4001A70084800F020FE074B1B78DBB2002B93
:1004E40002D0064B064A1A6000BF80BDD00000202F
:1004F4008401002000100140850100200400002038
:10050400ED03000880B500AF002003F0B3FB012029
:1005140003F0B0FB042003F0ADFB032003F0AAFBBF
:10052400102003F0A7FB01F0D7FA6B4B6B4A1A605B
:10053400694B01221A75684B0B22DA80664B012243
:100544001A71654B0022DA60634B00229A60624B99
:1005540002225A71604801F026FF614B5F4A1A601B
:100564005F4B01221A755E4B0022DA805C4B01223C
:100574001A715B4B0022DA60594B00229A60584B87
:1005840002225A71564801F00EFF564B01221A708E
:10059400544B554A5A60534B0622DA70514B0C2285
:1005A4009A70504B0A225A814E4B0B221A814D4BA2
:1005B4000C229A824B4B0D22DA824A4B0E221A836A
:1005C400484B0F225A83474801F03CFC474B012219
:1005D4001A70464B414A5A60444B0622DA70434B28
:1005E4000C229A70414B05221A81404B06225A81F3
:1005F4003E4B0C229A823D4B0D22DA823B4B0E225B
:100604001A833A4B0F225A83384801F01BFC384BAB
:100614000C221A70364B4FF4E1325A60344B0022EC
:100624001A75334B20225A75314B324A9A61304B3A
:100634000022DA602E4B00221A722D4B00221A611E
:100644002B492D4804F0EEF82C4B0C221A702B4B3E
:100654004FF4E1325A60294B00221A75274B2022AD
:100664005A75264B264A9A61244B0022DA60234BA2
:1006740000221A72214B00221A612049214804F0F9
:10068400D1F8214B00221A701F4B00225A601E4BD6
:1006940007225A801C4B02225A701B490F4801F052
:1006A40095FF194B00221A70174B00225A60164B03
:1006B40001225A80144B02225A701349074801F050
:1006C40085FF04F055F801F0F5FE01F039FF01F063
:1006D4008BFA00BF80BD00BFD400002000000240A0
:1006E400EC00002004010020000C02402001002046
:1006F4003C010020F91100080010014058010020BD
:1007040011120008004400407401002080B58EB02E
:1007140006AF01238022A249A24801F0F6FD01237D
:10072400C022A1499F4801F0F0FD01F0A7FA034659
:10073400FB71FB79462BF8D0FB791946994801F0F7
:10074400CDFC9A4AFB7913700121964801F0E9FB2C
:10075400012380229649934801F0D7FD0123C0224A
:100764009449904801F0D1FD0023FB6120E001F0A1
:1007740085FA0346FB71FB79462BF8D08E4AFB6958
:100784001344FA791A70FB69DBB2F979942285482B
:1007940001F081FD0023BB6102E0BB690133BB6151
:1007A400BB6947F22F529342F7DDFB690133FB61CA
:1007B400FB69032BDBDD01217A4801F0B2FB012345
:1007C40080227E49774801F0A0FD0223C0227C49A3
:1007D400744801F09AFD01F051FA0346FB71FB796C
:1007E400462BF8D0FB7919466E4801F077FC6F4A26
:1007F400FB79537001216B4801F093FB01238022A4
:100804007049684801F081FD0123C0226E496548A2
:1008140001F07BFD00237B6120E001F02FFA034609
:10082400FB71FB79462BF8D0684A7B691344FA794B
:100834001A707B69DBB2F97994225A4801F02BFDD6
:1008440000233B6102E03B6901333B613B6947F2B2
:100854002F529342F7DD7B6901337B617B69032B64
:10086400DBDD01214F4801F05CFB01238022584964
:100874004C4801F04AFD0223C0225649494801F080
:1008840044FD01F0FBF90346FB71FB79462BF8D0DC
:10089400FB791946434801F021FC444AFB799370E3
:1008A4000121404801F03DFB012380224A493D4893
:1008B40001F02BFD0123C02248493A4801F025FDEF
:1008C4000023FB6020E001F0D9F90346FB71FB79BA
:1008D400462BF8D0424AFB681344FA791A70FB6835
:1008E400DBB2F97994222F4801F0D5FC0023BB60D8
:1008F40002E0BB680133BB60BB6847F22F529342EE
:10090400F7DDFB680133FB60FB68032BDBDD354B54
:10091400049304230393324B0293042301932B4B3C
:1009240000930423244A0321204800F02FFA0F22C5
:100934002C4940F6AF2001F0EFF80121194801F0ED
:10094400F0FA032380222849164801F0DEFC06232E
:10095400C0221549134801F0D8FC144B1B781946E2
:10096400104801F0BBFB0223942215490D4801F005
:10097400CCFC0E4B5B7819460A4801F0AFFB02230E
:10098400D4221449074801F0C0FC084B9B7819464F
:10099400044801F0A3FB00BF2037BD4680BD00BF63
:1009A400B461000804010020C4610008880100202B
:1009B400D0610008E46100088C010020F86100089F
:1009C40008620008146200082862000890010020F0
:1009D4003C6200084C620008586200086C6200081F
:1009E40094010020980100208062000880B500AFC7
:1009F4001F4B1B78002B38D01D4B00221A7001218D
:100A04001C4801F08EFA1C4B1B78002B12D10423D6
:100A140080221A49174801F078FC0123C0221849A2
:100A2400144801F072FCFD2394221649114801F088
:100A34006CFC1AE00423802210490E4801F065FC86
:100A44000123C02210490B4801F05FFC0A4B1B78BC
:100A54003033D9B2FE239422064801F01CFC002353
:100A640094220A49034801F050FC00BF80BD00BF36
:100A74008601002020010020080000209062000868
:100A8400A0620008B4620008C4620008D8620008CA
:100A940080B485B000AF0346FB710023BB73002311
:100AA400FB730BE0FB7B0C4AD35CFA799A4202D1CC
:100AB4000123BB7305E0FB7B0133FB73FB7B022B40
:100AC400F0D9BB7B012B0CBF01230023DBB21846FA
:100AD4001437BD4680BC70478801002080B483B0C1
:100AE40000AF0346FB710F4B1B78FA799A4202D18F
:100AF4000D4B1B7810E00B4B5B78FA799A4202D1CC
:100B04000A4B1B7808E0074B9B78FA799A4202D18A
:100B1400074B1B7800E0002318460C37BD4680BC09
:100B2400704700BF88010020090000200A0000204F
:100B34000B00002080B483B000AF0346FB711A4B56
:100B44001B78FA799A420AD1184B1B78002B0CBFF8
:100B540001230023DBB21A46144B1A701EE0124B19
:100B64005B78FA799A420AD1114B1B78002B0CBF9F
:100B740001230023DBB21A460D4B1A700EE00A4B18
:100B84009B78FA799A4209D10A4B1B78002B0CBF47
:100B940001230023DBB21A46064B1A7000BF0C3740
:100BA400BD4680BC704700BF8801002009000020BA
:100BB4000A0000200B00002080B58CB000AF034673
:100BC400FB7101216A4801F0ACF9012380226949D3
:100BD400674801F09AFB0123C0226749644801F089
:100BE40094FB002387F82F30644B1B78FA799A42E0
:100BF40038D10023BB6231E001F040F80346FB74B6
:100C0400FB7C462BF8D007F10C02BB6A1344FA7C38
:100C14001A70BB6ADBB294222A21554801F03BFBCF
:100C240000237B6202E07B6A01337B627B6A41F2D0
:100C340087329342F7DD07F10C02BB6A13441A783A
:100C44004F49BB6A0B441B789A4204D197F82F3062
:100C5400013387F82F30BB6A0133BB62BB6A032BB5
:100C6400CADD7AE0454B5B78FA799A4238D10023A1
:100C74003B6231E001F002F80346FB74FB7C462B37
:100C8400F8D007F10C023B6A1344FA7C1A703B6AF1
:100C9400DBB294222A21364801F0FDFA0023FB61DD
:100CA40002E0FB690133FB61FB6941F28732934245
:100CB400F7DD07F10C023B6A13441A7831493B6AA9
:100CC4000B441B789A4204D197F82F30013387F8EC
:100CD4002F303B6A01333B623B6A032BCADD3CE0A5
:100CE400264B9B78FA799A4237D10023BB6131E0D5
:100CF40000F0C4FF0346FB74FB7C462BF8D007F1DD
:100D04000C02BB691344FA7C1A70BB69DBB29422EF
:100D14002A21174801F0BFFA00237B6102E07B69B6
:100D240001337B617B6941F287329342F7DD07F13E
:100D34000C02BB6913441A781349BB690B441B7832
:100D44009A4204D197F82F30013387F82F30BB69CA
:100D54000133BB61BB69032BCADD97F82F30042B29
:100D64000CBF01230023DBB218463037BD4680BDDB
:100D740020010020E4620008F462000888010020D9
:100D84008C010020900100209401002080B48BB0DD
:100D940000AFF860B9607A603B6000237B62002397
:100DA4003B620DE03B6AFA681A447B6A591C79621B
:100DB40019463B6C0B4412781A703B6A01333B6250
:100DC4003A6ABB689A42EDDB0023FB610DE0FB69E4
:100DD4007A681A447B6A591C796219463B6C0B4445
:100DE40012781A70FB690133FB61FA693B689A4215
:100DF400EDDB0023BB610DE0BB693A6B1A447B6AEF
:100E0400591C796219463B6C0B4412781A70BB6901
:100E14000133BB61BA697B6B9A42EDDB00237B61D2
:100E24000DE07B69BA6B1A447B6A591C79621946D6
:100E34003B6C0B4412781A707B6901337B617A69CD
:100E4400FB6B9A42EDDB00BF00BF2C37BD4680BC74
:100E5400704780B586B000AF0121364801F061F8D3
:100E64003549344801F033FA002001F03BFB3348A4
:100E740001F0C5FA00237B6102E07B6901337B61E9
:100E84007B694CF24F329342F7DD2C4801F0DBFAD8
:100E940000233B6102E03B6901333B613B694CF257
:100EA4004F329342F7DD254801F0A9FA0023FB6095
:100EB40002E0FB680133FB60FB684CF24F32934263
:100EC400F7DD1E4801F0BFFA0023BB6002E0BB68F7
:100ED4000133BB60BB684CF24F329342F7DD1748D5
:100EE40001F08DFA00237B6002E07B6801337B60B4
:100EF4007B684CF24F329342F7DD104801F0A3FABD
:100F040000233B6002E03B6801333B603B684CF2EA
:100F14004F329342F7DD00BF0721094801F0F8FC86
:100F24000346002BF8D1012001F0DCFA00BF18378A
:100F3400BD4680BD2001002004630008D4000020C9
:100F44000000024080B586B000AF0121364800F0B1
:100F5400E8FF3649344801F0BAF9002001F008FBF3
:100F6400334801F04CFA00237B6102E07B690133D2
:100F74007B617B694CF24F329342F7DD2C4801F0E0
:100F840062FA00233B6102E03B6901333B613B6948
:100F94004CF24F329342F7DD254801F030FA00233A
:100FA400FB6002E0FB680133FB60FB684CF24F32EC
:100FB4009342F7DD1E4801F046FA0023BB6002E0CD
:100FC400BB680133BB60BB684CF24F329342F7DD20
:100FD400174801F014FA00237B6002E07B680133B8
:100FE4007B607B684CF24F329342F7DD104801F08E
:100FF4002AFA00233B6002E03B6801333B603B6814
:101004004CF24F329342F7DD00BF0121094801F051
:101014007FFC0346002BF8D1012001F0A9FA00BFA0
:101024001837BD4680BD00BF2001002018630008AA
:10103400D40000200000024080B586B000AF01213A
:10104400324800F06EFF3249304801F040F9012087
:1010540001F048FA012001F08BFA2E4801F0CFF993
:1010640000237B6102E07B6901337B617B694CF285
:101074004F329342F7DD274801F0E5F900233B6145
:1010840002E03B6901333B613B694CF24F329342CE
:10109400F7DD204801F0B3F90023FB6002E0FB68B0
:1010A4000133FB60FB684CF24F329342F7DD194881
:1010B40001F0C9F90023BB6002E0BB680133BB60E7
:1010C400BB684CF24F329342F7DD124801F097F9B6
:1010D40000237B6002E07B6801337B607B684CF219
:1010E4004F329342F7DD0B4801F0ADF900233B602A
:1010F40002E03B6801333B603B684CF24F32934261
:10110400F7DD00BF00BF1837BD4680BD20010020B9
:101114002C630008EC00002080B58AB000AF786032
:1011240007F10F0301221946786803F083FD07F1E4
:101134000F0301221946786803F00EFD2C4801F0D4
:101144005EF900237B6202E07B6A01337B627B6A87
:101154004CF24F329342F7DD254801F074F9002335
:101164003B6202E03B6A01333B623B6A4CF24F3222
:101174009342F7DD1E4801F042F90023FB6102E0CF
:10118400FB690133FB61FB694CF24F329342F7DD9B
:10119400174801F058F90023BB6102E0BB69013331
:1011A400BB61BB694CF24F329342F7DD104801F04A
:1011B40026F900237B6102E07B6901337B617B6953
:1011C4004CF24F329342F7DD094801F03CF9002319
:1011D4003B6102E03B6901333B613B694CF24F32B6
:1011E4009342F7DD00BF00BF2837BD4680BD00BF76
:1011F400EC00002080B400AF034B01221A7000BF42
:10120400BD4680BC704700BF8401002080B400AF9D
:10121400034B01221A7000BFBD4680BC704700BF5B
:101224008501002080B500AF134B1B7883F00103C8
:10123400DAB2114B1A70114B1B6801330F4A136059
:1012440001220C210E4801F085FB0C4B1B68642B1A
:1012540006D10C490C4804F0D5FA0C4804F02BFADA
:10126400064B1B68C82BDFD1044B00221A600648CA
:1012740004F0EBFAD8E700BFD002002004030020FA
:10128400000C0240C0010020D4020020040200200F
:1012940080B500AF114B1B7883F00103DAB20F4B1A
:1012A4001A700F4B1B6801330D4A136001220D2184
:1012B4000C4801F04FFB0A4B1B68642B02D10A480F
:1012C40004F0F9F9064B1B68C82BE3D1044B002248
:1012D4001A60064804F0FEF9DCE700BFD1020020E2
:1012E40008030020000C02404802002004020020F1
:1012F40080B500AF114B1B7883F00103DAB20F4BBA
:101304001A700F4B1B6801330D4A136001220E2122
:101314000C4801F01FFB0A4B1B68642B02D10A48DE
:1013240004F0C9F9064B1B68C82BE3D1044B002217
:101334001A60064804F0CEF9DCE700BFD2020020B0
:101344000C030020000C02408C0200204802002004
:1013540080B500AF134B1B7883F00103DAB2114B55
:101364001A70114B1B6801330F4A136001220F21BD
:101374000E4801F0EFFA0C4B1B68032B03D10C4908
:101384000C4804F03FFA084B1B68C82BE2D1064B0B
:1013940000221A60074804F058FA054804F09AF944
:1013A400D8E700BFD302002010030020000C024045
:1013B4008C020020D402002080B586B000AFEFF389
:1013C40014833B613B6903F00103002B03D0714B91
:1013D40007221A6002E06F4B0A221A60032002F00F
:1013E40049FC6D4B01221A706B4B00229A606A4BC8
:1013F40001225A70684B00225A6000237B610AE084
:101404007B699AB2644B5A806349644801F0DEF800
:101414007B6901337B617B690F2BF1DD01220121A3
:101424005E4801F097FA012202215C4801F092FA29
:1014340003F01EFD03F026FF0346002B01D000BF7E
:10144400FDE7574B03225A60554B564A1A60564BD8
:10145400564A92E8030018600433198002330A0CD8
:101464001A70534B4FF480621A60514B514A9A6080
:101474004F4B04221A71504B504A92E803001860F3
:101484000433198002330A0C1A704D4B4FF48062F6
:101494001A604B4B4B4A9A60494B03221A714A4BD0
:1014A4004A4A92E8030018600433198002330A0C94
:1014B4001A70474B4FF480621A60454B454A9A6054
:1014C400434B02221A71444B444A92E803001860C9
:1014D4000433198002330A0C1A70414B4FF48062B2
:1014E4001A603F4B3F4A9A603D4B01221A713E4BB2
:1014F4003E4A92E8030018600433198002330A0C50
:101504001A702B4803F03DFF03461A46384B1B78EC
:101514001344DAB2364B1A70294803F032FF0346FB
:101524001A46334B1B781344DAB2314B1A702848ED
:1015340003F027FF03461A462D4B1B781344DAB2F7
:101544002B4B1A70264803F01CFF03461A46284BFF
:101554001B781344DAB2264B1A7002F0CFFC034610
:10156400DBB27B710223BB7143F67F63BB60012353
:101574003B71204BFB603B1D184603F033F862B609
:1015840000BF03F085F80A4804F095F804F0C8F8A1
:1015940000BFFDE7A8010020B0010020000C0240BC
:1015A400D40200200C000020E40200203C63000868
:1015B400C001002029120008DC0100204463000857
:1015C4000402002095120008200200204C63000849
:1015D40048020020F5120008640200205463000849
:1015E4008C02002055130008A80200205C63000848
:1015F400AC010020FD15000880B400AF00BFBD465B
:1016040080BC704780B400AF00BFBD4680BC70474B
:1016140080B400AF01231846BD4680BC704780B536
:1016240082B000AF7860396004F09CFB0346162258
:101634001A604FF0FF3318460837BD4680BD80B5A9
:1016440082B000AF78604FF0FF317868FFF7E7FFB2
:1016540000BFFDE780B586B000AFF860B9607A607E
:1016640000237B610AE0AFF300800146BB685A1C8B
:10167400BA60CAB21A707B6901337B617A697B688C
:101684009A42F0DB7B6818461837BD4680BD80B5AA
:1016940086B000AFF860B9607A6000237B6109E02E
:1016A400BB685A1CBA601B781846AFF300807B698C
:1016B40001337B617A697B689A42F1DB7B68184667
:1016C4001837BD4680BD80B483B000AF78604FF05A
:1016D400FF3318460C37BD4680BC704780B483B0D6
:1016E40000AF786039603B684FF400525A600023C1
:1016F40018460C37BD4680BC704780B483B000AF39
:101704007860012318460C37BD4680BC704780B40E
:1017140085B000AFF860B9607A60002318461437CA
:10172400BD4680BC70470EB480B482B000AF786010
:101734004FF0FF3318460837BD4680BC03B07047EE
:1017440080B582B000AF786004F00CFB03460A2237
:101754001A604FF0FF3318460837BD4680BD80B588
:1017640082B000AF786004F0FDFA034602221A60EA
:101774004FF0FF3318460837BD4680BD80B483B0B0
:1017840000AF78604FF0FF3318460C37BD4680BC7D
:10179400704780B483B000AF786039603B684FF421
:1017A40000525A60002318460C37BD4680BC70476F
:1017B40080B582B000AF7860396004F0D3FA034694
:1017C4001F221A604FF0FF3318460837BD4680BD0C
:1017D40080B500AF04F0C6FA03460B221A604FF03E
:1017E400FF33184680BD80B584B000AFF860B9609F
:1017F4007A6004F0B7FA03460C221A604FF0FF3304
:1018040018461037BD4680BD80B586B000AF7860FD
:10181400144A154BD31A7B617B693B61134B1B68DC
:10182400002B02D1114B124A1A60104B1A687B68C4
:1018340013443A699A4207D204F094FA03460C22FC
:101844001A604FF0FF3309E0084B1B68FB60074B3D
:101854001A687B681344054A1360FB6818461837F6
:10186400BD4680BD00800120000400001803002054
:10187400B009002080B400AF034B4FF000629A60BF
:1018840000BFBD4680BC704700ED00E080B500AFEE
:10189400124B1B68114A43F0010313600F4B0022E3
:1018A4009A600E4B1B680D4A23F0847323F4803333
:1018B40013600A4B0A4A5A60084B1B68074A23F410
:1018C40080231360054B0022DA6000F08DF8054B8D
:1018D4004FF000629A6000BF80BD00BF0038024034
:1018E4001030002400ED00E080B487B000AF002386
:1018F4003B6100237B610223FB600023BB60022366
:101904007B60344B9B6803F00C033B613B69082B01
:1019140011D03B69082B44D83B69002B03D03B69A9
:10192400042B04D03DE02C4B2C4A1A603DE02A4B9A
:101934002B4A1A6039E0274B5B689B0D03F00103C7
:10194400BB60244B5B6803F03F037B60BB68002BE8
:101954000CD0234A7B68B2FBF3F31E4A5268920907
:10196400C2F3080202FB03F37B610BE01B4A7B68B2
:10197400B2FBF3F3174A52689209C2F3080202FB5E
:1019840003F37B61134B5B681B0C03F0030301330C
:101994005B00FB607A69FB68B2FBF3F30E4A1360E9
:1019A40003E00D4B0D4A1A6000BF0A4B9B681B09EC
:1019B40003F00F030B4AD35CDBB23B61064B1A689E
:1019C4003B6922FA03F3044A136000BF1C37BD4687
:1019D40080BC704700380240140000200024F4004A
:1019E40040787D011800002080B483B000AF00234C
:1019F4007B6000233B60344B1B68334A43F48033E1
:101A04001360314B1B6803F400333B607B68013384
:101A14007B603B68002B03D17B68B3F5A04FF0D10A
:101A2400294B1B6803F40033002B02D001233B60D5
:101A340001E000233B603B68012B40D1224B1B6C2F
:101A4400214A43F080531364204B1B681F4A43F41C
:101A5400404313601C4B1C4A9B6893601A4B1A4A00
:101A64009B689360184B9B68174A43F480539360B8
:101A7400154B174A5A60144B1B68134A43F0807382
:101A8400136000BF104B1B6803F00073002BF9D0E8
:101A9400104B40F202721A600B4B9B680A4A23F007
:101AA40003039360084B9B68074A43F00203936067
:101AB40000BF054B9B6803F00C03082BF9D100BF52
:101AC4000C37BD4680BC70470038024000700040AF
:101AD40019544107003C024080B588B000AF402350
:101AE400BB614FF480637B61094B3B600023BB60A7
:101AF4000023FB6100237B60064801F0E5F83B46C8
:101B04001946044800F0A2FF00BF2037BD4680BD3F
:101B1400A08601000054004080B588B002AFF86090
:101B2400B9601346FB71FB681B0ADAB2154B1A70D5
:101B3400FB68DAB2134B5A700223FB750AE0FB7D93
:101B4400023BBA681A44FB7D11780E4AD154FB7DDE
:101B54000133FB75FB795A1CFB7D9A42EFDAFB7962
:101B640002331A4600230193002300931346054AC7
:101B74005021054801F0EEF8002318461837BD46F9
:101B840080BD00BF1C0300200054004080B586B017
:101B940002AFF860B9601346FB71FB681B0ADAB246
:101BA4000F4B1A70FB68DAB20D4B5A700023019385
:101BB4000123009302230A4A50210A4801F0CAF87B
:101BC400FB790122019200220092BA685021054853
:101BD40001F027FD002318461037BD4680BD00BF25
:101BE4001C0300200054004080B586B000AF0123E0
:101BF4003B710023FB600023BB6002237B71002345
:101C0400FB7515E0FB7D1A4A32F81330FB803B1D4F
:101C14001946184800F0DAFCFB7D154A32F81330F7
:101C240000221946134800F095FEFB7D0133FB7535
:101C3400FB7D032BE6D900233B710223BB60002309
:101C4400BB750CE0BB7D0C4A32F81330FB803B1DA6
:101C54001946084800F0BAFCBB7D0133BB75BB7D57
:101C6400022BEFD900BF00BF1837BD4680BD00BFAF
:101C740034000020001002403C00002080B582B0F7
:101C840000AF46237B710023FB7149E0FB79284AAE
:101C940032F8133001221946264800F05BFE002377
:101CA400BB712EE0BB79244A32F81330194621481F
:101CB40000F02EFE0346012B20D100BFBB791E4A43
:101CC40032F8133019461B4800F022FE0346012B5C
:101CD400F4D0FA79B979194813465B0013440344E4
:101CE4000B441B787B71FB79114A32F813300022C4
:101CF4001946104800F02EFE7B7915E0BB790133BC
:101D0400BB71BB79022BCDD9FB79094A32F8133068
:101D140000221946074800F01DFEFB790133FB71D0
:101D2400FB79032BB2D97B7918460837BD4680BDB1
:101D340034000020001002403C0000202800002055
:101D440080B586B000AF786001233B7200233B610D
:101D54000023FB6002237B727B681B897B817B6889
:101D64005B6807F108021146184600F02FFC7B68F7
:101D74005B897B817B685B6807F108021146184622
:101D840000F024FC7B681B78002B2BD17B689B899B
:101D94007B817B685B6807F108021146184600F0F6
:101DA40015FC7B68DB897B817B685B6807F1080233
:101DB4001146184600F00AFC7B681B8A7B817B680D
:101DC4005B6807F108021146184600F0FFFB7B68C8
:101DD4005B8A7B817B685B6807F1080211461846C1
:101DE40000F0F4FB7B689B8A7B817B685B6807F16E
:101DF40008021146184600F0E9FB7B68DB8A7B8108
:101E04007B685B6807F108021146184600F0DEFBA8
:101E14007B681B8B7B817B685B6807F1080211463A
:101E2400184600F0D3FB7B685B8B7B817B685B6827
:101E340007F108021146184600F0C8FB00BF183726
:101E4400BD4680BD80B582B000AF78607868FFF78A
:101E540077FF022002F072FC7B681B78002B07D10D
:101E64003821786800F05DF8012002F067FC3BE05F
:101E74007B681B78012B37D17B6858687B681B898A
:101E84000022194600F066FD012002F057FC7B6831
:101E940058687B689B8A0022194600F05BFD7B68CA
:101EA40058687B68DB8A2022194600F053FD7B6862
:101EB40058687B681B8B0022194600F04BFD7B6839
:101EC40058687B685B8B0022194600F043FD0120B3
:101ED40002F034FC786800F031FA2821786800F0C8
:101EE40020F8012002F02AFC7B689B781946786868
:101EF40000F017F8012002F021FC0121786800F0BD
:101F040010F8022002F01AFC7B68DB781946786826
:101F140000F007F8012002F011FC00BF0837BD46AD
:101F240080BD80B582B000AF78600B46FB707B68E3
:101F340058687B681B890022194600F00BFD0120BC
:101F440002F0FCFB7B681B78002B58D17B68586837
:101F54007B689989FB7803F00103DBB21A4600F031
:101F6400F9FC7B6858687B68D989FB7803F0020325
:101F7400DBB21A4600F0EEFC7B6858687B68198A6D
:101F8400FB7803F00403DBB21A4600F0E3FC7B6841
:101F940058687B68598AFB7803F00803DBB21A4659
:101FA40000F0D8FC7B6858687B68998AFB7803F05A
:101FB4001003DBB21A4600F0CDFC7B6858687B68DE
:101FC400D98AFB7803F02003DBB21A4600F0C2FC86
:101FD4007B6858687B68198BFB7803F04003DBB29D
:101FE4001A4600F0B7FC7B6858687B68598BFB780D
:101FF40023F07F03DBB21A4600F0ACFC61E07B689F
:102004001B78012B5DD17B6858687B68998AFB78C3
:1020140003F01003DBB21A4600F09CFC7B6858689E
:102024007B68D98AFB7803F02003DBB21A4600F000
:1020340091FC7B6858687B68198BFB7803F040033C
:10204400DBB21A4600F086FC7B6858687B68598BC3
:10205400FB7823F07F03DBB21A4600F07BFC786840
:1020640000F06CF9012002F069FB7B6858687B681A
:10207400998AFB7803F00103DBB21A4600F06AFC8C
:102084007B6858687B68D98AFB7803F00203DBB26B
:102094001A4600F05FFC7B6858687B68198BFB78F4
:1020A40003F00403DBB21A4600F054FC7B68586862
:1020B4007B68598BFB7803F00803DBB21A4600F007
:1020C40049FC012002F03AFB786800F037F96420FB
:1020D40002F034FB00BF0837BD4680BD80B582B036
:1020E40000AF78600B46FB707B6858687B681B897F
:1020F4000122194600F02EFC012002F01FFB7B6830
:102104001B78002B58D17B6858687B689989FB78C9
:1021140003F00103DBB21A4600F01CFC7B6858682C
:102124007B68D989FB7803F00203DBB21A4600F01E
:1021340011FC7B6858687B68198AFB7803F00403F8
:10214400DBB21A4600F006FC7B6858687B68598A43
:10215400FB7803F00803DBB21A4600F0FBFB7B6854
:1021640058687B68998AFB7803F01003DBB21A463F
:1021740000F0F0FB7B6858687B68D98AFB7803F031
:102184002003DBB21A4600F0E5FB7B6858687B68E5
:10219400198BFB7803F04003DBB21A4600F0DAFB3C
:1021A4007B6858687B68598BFB7823F07F03DBB22C
:1021B4001A4600F0CFFB61E07B681B78012B5DD1F0
:1021C4007B6858687B68998AFB7803F01003DBB25C
:1021D4001A4600F0BFFB7B6858687B68D98AFB7895
:1021E40003F02003DBB21A4600F0B4FB7B685868A6
:1021F4007B68198BFB7803F04003DBB21A4600F0CE
:10220400A9FB7B6858687B68598BFB7823F07F03B4
:10221400DBB21A4600F09EFB786800F08FF80120CC
:1022240002F08CFA7B6858687B68998AFB7803F023
:102234000103DBB21A4600F08DFB7B6858687B68AB
:10224400D98AFB7803F00203DBB21A4600F082FB62
:102254007B6858687B68198BFB7803F00403DBB256
:102264001A4600F077FB7B6858687B68598BFB78CB
:1022740003F00803DBB21A4600F06CFB012002F005
:102284005DFA786800F05AF8642002F057FA00BF4B
:102294000837BD4680BD80B582B000AF786008467F
:1022A40011461A460346FB700B46BB7013467B70FF
:1022B4007A78BB781946786800F05EF8FB7819469E
:1022C4007868FFF70BFF00BF0837BD4680BD80B5B7
:1022D40084B000AF786039600023FB600AE0FB68DB
:1022E4003A6813441B7819467868FFF7F7FEFB68D1
:1022F4000133FB60FB683A6813441B78002BEED172
:1023040000BF00BF1037BD4680BD80B584B000AFAC
:10231400F860B96011461A460B46FB711346BB714F
:10232400BA79FB791946F86800F026F8B968F868B4
:10233400FFF7CDFF00BF1037BD4680BD80B582B02A
:1023440000AF78607B6858687B685B890122194616
:1023540000F000FB012002F0F1F97B6858687B680B
:102364005B890022194600F0F5FA012002F0E6F933
:1023740000BF0837BD4680BD80B582B000AF78602D
:102384000B46FB701346BB70BB78013BBB70FA78FD
:10239400BB781344DBB219467868FFF7C2FD00BF6F
:1023A4000837BD4680BD80B582B000AF78607B68D9
:1023B400002B20D07B681A687B68043319461046CA
:1023C40000F004F97B681B7D002B08D17B6818683A
:1023D4007B68DB880022194600F0BCFA0BE07B68BE
:1023E4001B7D012B07D17B6818687B68DB88012281
:1023F400194600F0AFFA00BF0837BD4680BD80B56E
:1024040082B000AF78607B68002B18D07B681B7D9E
:10241400002B08D17B6818687B68DB880122194689
:1024240000F098FA0BE07B681B7D012B07D17B68D9
:1024340018687B68DB880022194600F08BFA00BF1D
:102444000837BD4680BD80B582B000AF78607B6838
:10245400002B18D07B681B7D002B08D17B68186883
:102464007B68DB880022194600F074FA0BE07B6875
:102474001B7D012B07D17B6818687B68DB880122F0
:10248400194600F067FA00BF0837BD4680BD80B525
:1024940082B000AF78607B68002B07D07B681A6835
:1024A4007B68DB881946104600F086FA00BF0837BF
:1024B400BD4680BD80B584B000AF08237B80012376
:1024C4003B700023BB6000237B6002237B703B4690
:1024D4001946034800F07AF800BF1037BD4680BDA6
:1024E4000004024080B582B000AF0346FB71FB7963
:1024F400002B0ED101220821104800F02BFA4FF4D2
:10250400FA7002F061F9002208210C4800F022FA66
:1025140010E0FB79012B0DD101220821074800F0BE
:1025240019FA40F6B23002F04FF9002208210348AC
:1025340000F010FA00BF0837BD4680BD0004024019
:1025440080B584B000AF09237B8001233B70002356
:10255400BB6000237B6002237B703B461946034823
:1025640000F034F800BF1037BD4680BD00040240BF
:1025740080B582B000AF0346FB71FB79002B0ED10E
:1025840001220921104800F0E5F94FF4FA7002F035
:102594001BF9002209210C4800F0DCF910E0FB795A
:1025A400012B0DD101220921074800F0D3F940F68F
:1025B400B23002F009F900220921034800F0CAF9F7
:1025C40000BF0837BD4680BD0004024080B586B018
:1025D40000AF786039603B685B88FB753B681B78AB
:1025E400032B17D87B681B68FA7D5200032101FA7C
:1025F40002F2D2431A407B681A607B681B683A680F
:1026040012781146FA7D520001FA02F21A437B68ED
:102614001A608AE03B681B78042B15D1804BDB6879
:10262400FA7D012101FA02F211467D4A0B43D3607F
:102634007B4B9B68FA7D012101FA02F2D2431146D9
:10264400774A0B40936031E03B681B78052B15D12A
:10265400734B9B68FA7D012101FA02F21146704A1C
:102664000B4393606E4BDB68FA7D012101FA02F2A1
:10267400D24311466A4A0B40D36017E03B681B788B
:10268400062B13D1664BDB68FA7D012101FA02F2B5
:102694001146634A0B43D360614B9B68FA7D012169
:1026A40001FA02F211465E4A0B439360FB7D9B08DC
:1026B400DBB23B61FB7D9BB203F00303FB817B68D0
:1026C400584A934219D07B68574A934213D07B6887
:1026D400564A93420DD07B68554A934207D07B6893
:1026E400544A934201D1042308E0002306E0032363
:1026F40004E0022302E0012300E00023BB81112057
:1027040001F0B8FABA89FB899B004B499A403B69AE
:10271400023341F82320424B1B68FA7D012101FA60
:1027240002F211463E4A0B4313607B685B68FA7DF4
:10273400012101FA02F2D2431A407B685A607B6895
:102744005A683B689968FB7D01FA03F31A437B6876
:102754005A607B689B68FA7D5200032101FA02F2F9
:10276400D2431A407B689A607B689B683A685278C7
:102774001146FA7D520001FA02F21A437B689A600C
:102784007B68DB68FA7D5200032101FA02F2D2432E
:102794001A407B68DA607B68DA683B685968FB7DBD
:1027A4005B0001FA03F31A437B68DA603B681B7829
:1027B400022B31D1FB7D072B16D87B681B6AFA7D6F
:1027C40092000F2101FA02F2D2431A407B681A6286
:1027D4007B681A6A3B68D968FB7D9B0001FA03F3A6
:1027E4001A437B681A6217E07B685B6AFA7D083AD1
:1027F40092000F2101FA02F2D2431A407B685A6216
:102804007B685A6A3B68D968FB7D083B9B0001FAE8
:1028140003F31A437B685A6200BF1837BD4680BD74
:10282400003C014000000240000402400008024055
:10283400000C0240001002400038014080B483B014
:1028440000AF78607B682C4A93420CD12B4B1B69F8
:102854002A4A43F001031361284B1B69274A23F0DA
:102864000103136142E07B68254A93420CD1234B58
:102874001B69224A43F002031361204B1B691F4A60
:1028840023F00203136131E07B681E4A93420CD1AA
:102894001A4B1B69194A43F004031361174B1B6954
:1028A400164A23F00403136120E07B68164A93421E
:1028B4000CD1124B1B69114A43F0080313610F4BEF
:1028C4001B690E4A23F0080313610FE07B680F4A6B
:1028D40093420BD1094B1B69084A43F0100313615F
:1028E400064B1B69054A23F01003136100BF0C3724
:1028F400BD4680BC704700BF000002400038024063
:102904000004024000080240000C02400010024093
:1029140080B485B000AF78600B467B807B681A6911
:102924007B8822FA03F3DBB203F00103FB73FB7B26
:1029340018461437BD4680BC704780B485B000AFDC
:1029440078607B681B69FB81FB8918461437BD4698
:1029540080BC704780B483B000AF78600B467B8046
:1029640013467B707B78002B09D07B685B697A887F
:10297400012101FA02F21A437B685A6109E07B687B
:102984005A697B88012101FA03F3DB431A407B680F
:102994005A6100BF0C37BD4680BC704780B483B019
:1029A40000AF78600B467B807A887B685A6100BFF1
:1029B4000C37BD4680BC704780B483B000AF7860EC
:1029C4000B467B807B685B697A88012101FA02F2FD
:1029D4005A407B685A6100BF0C37BD4680BC7047C3
:1029E40080B483B000AF78607B685B6983F47F4315
:1029F40083F0FF037A68536100BF0C37BD4680BC87
:102A0400704780B485B000AF78600B467B807B88CC
:102A140043F48033FB60FA687B68DA617A887B6808
:102A2400DA61FA687B68DA617B68DB69FB607B6882
:102A3400DB6903F48033002B01D0012300E0002381
:102A440018461437BD4680BC704700BFB0B586B089
:102A540000AF786039600023FB820023BB827A4B8D
:102A64003B610023FB817B68784A93420DD1784A0D
:102A74003B6814461D460FCD0FC495E80F0084E84B
:102A84000F000D2001F0F6F80DE0714B3A6803F1E8
:102A9400200415460FCD0FC495E80F0084E80F00FD
:102AA4000E2001F0E7F83B689B68002B40F0C080E3
:102AB4007B689B88FB82FB8A23F03F03FB8201F047
:102AC4005BFA38613B69634AA2FB03239B0CBB821C
:102AD400FA8ABB8A1343FB827B68FA8A9A807B68F2
:102AE4001B889BB223F001039AB27B681A800023EF
:102AF400FB823B681B68B3F5A02F04D03B681B68BE
:102B0400554A934215D13B681B685B003A69B2FB96
:102B1400F3F3FB817B689B8BFB82FA8AFB8913436B
:102B2400FB827B68FA8A9A83BB8A01339AB27B68F8
:102B34001A847B681B88FB823B685B699AB23B689A
:102B44005B689BB213439AB23B689B689BB2134386
:102B54009AB2FB8A1343FB827B68FA8A1A800023A9
:102B6400FB823B689B89012B0FD1FB8A43F0010355
:102B7400FB823B681B8A5B001AB2B7F91630134319
:102B84001BB2FB827B68FA8A9A810023FB823B6832
:102B9400DB895B001AB2B7F9163013431BB2FB8210
:102BA4003B685B8A5B001AB2B7F9163013431BB259
:102BB400FB823B68DB69002B17D07B689B889BB248
:102BC40043F480639AB27B689A807B689B889BB24B
:102BD40043F480739AB27B689A807B689B889BB22B
:102BE40043F400739AB27B689A807B68174A9342D5
:102BF4000CD11A4B1B68194A43F000431360184B5D
:102C04001B68174A43F0010313600BE0144B1B6865
:102C1400134A43F002031360114B1B68104A43F03C
:102C2400040313607B6800229A827B6800221A8363
:102C34007B681B889BB243F001039AB27B681A80BD
:102C440000BF1837BD46B0BD00127A0000540040E2
:102C54001C04002083DE1B43A086010000E100E089
:102C640004E100E080B582B000AF78607B68134A6D
:102C740093420FD1124B1B68114A23F00043136097
:102C8400104B1B680F4A23F0010313600D2001F061
:102C940093F80EE00B4B1B680A4A23F002031360FF
:102CA400084B1B68074A23F0040313600E2001F04D
:102CB40083F800BF0837BD4680BD00BF0054004004
:102CC40080E100E084E100E080B586B000AF786088
:102CD4007B681E4A93421AD102233B7202237B7201
:102CE40006237B810023FB6001233B6104237B617A
:102CF40007F1080319461648FFF768FC07237B8190
:102D040007F1080319461248FFF760FC19E0022393
:102D14003B7202237B720A237B810023FB60012325
:102D24003B6104237B6107F1080319460848FFF758
:102D34004DFC03237B8107F1080319460448FFF780
:102D440045FC00BF1837BD4680BD00BF005400409D
:102D54000004024080B5BEB000AFF8607A603B600A
:102D64000B467B8100237B6197F804311A460121CD
:102D7400F86800F0AAFC00BF0121F86800F0EFFC3D
:102D84000346002BF8D07B8900221946F86800F02E
:102D94006BFD00BF0221F86800F0E1FC0346002B44
:102DA400F8D000BFBB49F86800F0D9FC0346002BFB
:102DB400F8D07B697A6813441B781A46FB681A8238
:102DC4000023C7F8F43004E0D7F8F4300133C7F82F
:102DD400F430D7F8F43041F287329342F4DD00BF87
:102DE4000421F86800F0BBFC0346002BF8D0002354
:102DF400C7F8F03004E0D7F8F0300133C7F8F0300A
:102E0400D7F8F03041F287329342F4DD0023C7F85B
:102E1400EC3004E0D7F8EC300133C7F8EC30D7F8E5
:102E2400EC3041F287329342F4DD7B6901337B61FC
:102E34007B697A6813441B781A46FB681A8200235C
:102E4400C7F8E83004E0D7F8E8300133C7F8E830D1
:102E5400D7F8E83041F287329342F4DD00BF042111
:102E6400F86800F07CFC0346002BF8D00023C7F878
:102E7400E43004E0D7F8E4300133C7F8E430D7F89D
:102E8400E43041F287329342F4DD0023C7F8E030A6
:102E940004E0D7F8E0300133C7F8E030D7F8E03089
:102EA40041F287329342F4DD3B68022B40F2978370
:102EB4007B6901337B617B697A6813441B781A460A
:102EC400FB681A820023C7F8DC3004E0D7F8DC3052
:102ED4000133C7F8DC30D7F8DC3041F28732934253
:102EE400F4DD00BF0421F86800F039FC0346002B30
:102EF400F8D00023C7F8D83004E0D7F8D83001332D
:102F0400C7F8D830D7F8D83041F287329342F4DD8D
:102F14000023C7F8D43004E0D7F8D4300133C7F81D
:102F2400D430D7F8D43041F287329342F4DD7B6950
:102F340001337B617B697A6813441B781A46FB680A
:102F44001A820023C7F8D03004E0D7F8D030013318
:102F5400C7F8D030D7F8D03041F287329342F4DD4D
:102F640000BF0421F86800F0FAFB0346002BF8D0F8
:102F74000023C7F8CC3004E0D7F8CC300133C7F8CD
:102F8400CC30D7F8CC3041F287329342F4DD0023C1
:102F9400C7F8C83004E0D7F8C8300133C7F8C830E0
:102FA400D7F8C83041F287329342F4DD7B690133AC
:102FB4007B617B697A6813441B781A46FB681A8222
:102FC4000023C7F8C43004E0D7F8C4300133C7F88D
:102FD400C430D7F8C43041F287329342F4DD00BFE5
:102FE4000421F86800F0BBFB0346002BF8D0002353
:102FF400C7F8C03004E0D7F8C0300133C7F8C03098
:10300400D7F8C03041F287329342F4DD0023C7F889
:10301400BC3004E0D7F8BC300133C7F8BC30D7F873
:10302400BC3041F287329342F4DD7B6901337B612A
:103034007B697A6813441B781A46FB681A8200235A
:10304400C7F8B83004E0D7F8B8300133C7F8B8305F
:10305400D7F8B83041F287329342F4DD00BF04213F
:10306400F86800F07CFB0346002BF8D00023C7F877
:10307400B43004E0D7F8B4300133C7F8B430D7F82B
:10308400B43041F287329342F4DD0023C7F8B03004
:1030940007E000BF80000700D7F8B0300133C7F85D
:1030A400B030D7F8B03041F287329342F4DD7B6917
:1030B40001337B617B697A6813441B781A46FB6889
:1030C4001A820023C7F8AC3004E0D7F8AC300133DF
:1030D400C7F8AC30D7F8AC3041F287329342F4DD14
:1030E40000BF0421F86800F03AFB0346002BF8D037
:1030F4000023C7F8A83004E0D7F8A8300133C7F894
:10310400A830D7F8A83041F287329342F4DD002387
:10311400C7F8A43004E0D7F8A4300133C7F8A430CA
:10312400D7F8A43041F287329342F4DD7B6901334E
:103134007B617B697A6813441B781A46FB681A82A0
:103144000023C7F8A03004E0D7F8A0300133C7F853
:10315400A030D7F8A03041F287329342F4DD00BFAB
:103164000421F86800F0FBFA0346002BF8D0002392
:10317400C7F89C3004E0D7F89C300133C7F89C3082
:10318400D7F89C3041F287329342F4DD0023C7F82C
:10319400983004E0D7F898300133C7F89830D7F85E
:1031A400983041F287329342F4DD7B6901337B61CD
:1031B4007B697A6813441B781A46FB681A820023D9
:1031C400C7F8943004E0D7F894300133C7F894304A
:1031D400D7F8943041F287329342F4DD00BF0421E2
:1031E400F86800F0BCFA0346002BF8D00023C7F8B7
:1031F400903004E0D7F890300133C7F89030D7F816
:10320400903041F287329342F4DD0023C7F88C30CA
:1032140004E0D7F88C300133C7F88C30D7F88C3001
:1032240041F287329342F4DD3B680F2B40F2D781A1
:103234007B6901337B617B697A6813441B781A4686
:10324400FB681A820023C7F8883004E0D7F8883076
:103254000133C7F88830D7F8883041F28732934277
:10326400F4DD00BF0421F86800F079FA0346002B6E
:10327400F8D00023C7F8843004E0D7F88430013351
:10328400C7F88430D7F8843041F287329342F4DDB2
:103294000023C7F8803004E0D7F880300133C7F842
:1032A4008030D7F8803041F287329342F4DD7B6975
:1032B40001337B617B697A6813441B781A46FB6887
:1032C4001A820023FB6702E0FB6F0133FB67FB6F8D
:1032D40041F287329342F7DD00BF0421F86800F021
:1032E4003EFA0346002BF8D00023BB6702E0BB6F15
:1032F4000133BB67BB6F41F287329342F7DD002392
:103304007B6702E07B6F01337B677B6F41F287321F
:103314009342F7DD7B6901337B617B697A681344EF
:103324001B781A46FB681A8200233B6702E03B6F56
:1033340001333B673B6F41F287329342F7DD00BFB5
:103344000421F86800F00BFA0346002BF8D00023A0
:10335400FB6602E0FB6E0133FB66FB6E41F28732D3
:103364009342F7DD0023BB6602E0BB6E0133BB660C
:10337400BB6E41F287329342F7DD7B6901337B6197
:103384007B697A6813441B781A46FB681A82002307
:103394007B6602E07B6E01337B667B6E41F2873293
:1033A4009342F7DD00BF0421F86800F0D8F9034622
:1033B400002BF8D000233B6602E03B6E01333B66F2
:1033C4003B6E41F287329342F7DD0023FB6502E056
:1033D400FB6D0133FB65FB6D41F287329342F7DDF0
:1033E4007B6901337B617B697A6813441B781A46D5
:1033F400FB681A820023BB6502E0BB6D0133BB6529
:10340400BB6D41F287329342F7DD00BF0421F868B7
:1034140000F0A5F90346002BF8D000237B6502E0F9
:103424007B6D01337B657B6D41F287329342F7DD1F
:1034340000233B6502E03B6D01333B653B6D41F28C
:1034440087329342F7DD7B6901337B617B697A685C
:1034540013441B781A46FB681A820023FB6402E0BB
:10346400FB6C0133FB64FB6C41F287329342F7DD62
:1034740000BF0421F86800F072F90346002BF8D06D
:103484000023BB6402E0BB6C0133BB64BB6C41F240
:1034940087329342F7DD00237B6402E07B6C0133C7
:1034A4007B647B6C41F287329342F7DD7B690133A5
:1034B4007B617B697A6813441B781A46FB681A821D
:1034C40000233B6402E03B6C01333B643B6C41F200
:1034D40087329342F7DD00BF0421F86800F03FF91A
:1034E4000346002BF8D00023FB6302E0FB6B01339F
:1034F400FB63FB6B41F287329342F7DD0023BB632E
:1035040002E0BB6B0133BB63BB6B41F28732934276
:10351400F7DD7B6901337B617B697A6813441B782F
:103524001A46FB681A8200237B6302E07B6B01333B
:103534007B637B6B41F287329342F7DD00BF04214A
:10354400F86800F00CF90346002BF8D000233B6325
:1035540002E03B6B01333B633B6B41F287329342A6
:10356400F7DD0023FB6202E0FB6A0133FB62FB6AC6
:1035740041F287329342F7DD7B6901337B617B69DA
:103584007A6813441B781A46FB681A820023BB62CC
:1035940002E0BB6A0133BB62BB6A41F287329342E9
:1035A400F7DD00BF0421F86800F0D9F80346002BCA
:1035B400F8D000237B6202E07B6A01337B627B6A82
:1035C40041F287329342F7DD00233B6202E03B6A1B
:1035D40001333B623B6A41F287329342F7DD97F84D
:1035E4000031002B19D10121F86800F057F90023AC
:1035F400FB6102E0FB690133FB61FB6941F2873245
:103604009342F7DD0023BB6102E0BB690133BB6178
:10361400BB6941F287329342F7DD00BFF837BD46FC
:1036240080BD80B586B000AFF8607A603B600B4621
:103634007B813B687B610121F86800F071F897F8A1
:1036440024301A460121F86800F03FF800BF012138
:10365400F86800F084F80346002BF8D07B89012237
:103664001946F86800F000F900BF0221F86800F07C
:1036740076F80346002BF8D016E000BF0321F86863
:1036840000F06DF80346002BF8D0FB681B8A99B252
:103694007B685A1C7A60CAB21A707B69012B03D109
:1036A4000021F86800F03CF87B695A1E7A61002B0F
:1036B400E3D197F82030002B03D10121F86800F002
:1036C400EDF800BF1837BD4680BD80B582B000AFAD
:1036D40078600B46FB701346BB70BB78012B07D197
:1036E40000BF0021786800F03AF80346002BF8D1B7
:1036F400FB78012B08D17B681B889BB243F4807351
:103704009AB27B681A8007E07B681B889BB223F41B
:1037140080739AB27B681A8000BF0837BD4680BDAB
:1037240080B483B000AF78600B46FB70FB78002B4D
:1037340008D07B681B889BB243F480639AB27B6891
:103744001A8007E07B681B889BB223F480639AB2DB
:103754007B681A8000BF0C37BD4680BC704780B4BC
:1037640087B000AF786039600023FB7500233B61AC
:103774000023FB603B68052B12D83B68052B6AD8F5
:1037840001A252F823F000BFAF370008C737000882
:10379400DF370008433800082B3800082B380008AE
:1037A4003B68304A934224D055E07B681B8B9BB224
:1037B40003F00203002B14BF01230023DBB2FB75CB
:1037C40049E07B689B8A9BB203F00103002B14BF82
:1037D40001230023DBB2FB753DE07B689B8A9BB22F
:1037E40003F00203002B14BF01230023DBB2FB759B
:1037F40031E07B689B8A9BB23B617B681B8B9BB2ED
:103804001B04FB603A69FB68134323F07F43BB60EE
:10381400BA683B6813403A689A420CBF01230023FC
:10382400DBB2FB7517E07B689B8A9BB203F08003D5
:10383400002B14BF01230023DBB2FB750BE07B6874
:103844009B8A9BB203F04003002B14BF0123002387
:10385400DBB2FB7500BFFB7D18461C37BD4680BC40
:10386400704700BF8000070080B483B000AF786069
:103874000B467B8013467B707B885B007B807B7868
:10388400002B03D07B8843F001037B807B687A881C
:103894001A8200BF0C37BD4680BC704780B483B029
:1038A40000AF78600B46FB70FB78002B08D07B6878
:1038B4001B889BB243F400739AB27B681A8007E0BA
:1038C4007B681B889BB223F400739AB27B681A80CE
:1038D40000BF0C37BD4680BC704780B483B000AFD6
:1038E40078600B46FB70FB789AB27B681A8200BF43
:1038F4000C37BD4680BC704780B483B000AF78609D
:103904007B681B8A9BB2DBB218460C37BD4680BC71
:10391400704700BF80B485B000AF78607B6803F463
:10392400E0637B600C4BDB68FB60FB6883F07F43E8
:1039340083F47F03FB60FB6823F4E063FB60FA68B5
:103944007B681343FB60044AFB68D36000BF1437F1
:10395400BD4680BC704700BF00ED00E080B400AFFE
:10396400044BDB681B0A03F007031846BD4680BC02
:10397400704700BF00ED00E080B485B000AF03469F
:10398400FB71FB795B09FB73FB7903F01F03BB73CA
:10399400BA7B0649FB7B012000FA02F241F823209E
:1039A40000BF1437BD4680BC704700BF00E100E093
:1039B40080B485B000AF0346FB71FB795B09FB73F0
:1039C400FB7903F01F03BB73BA7B0649FB7B012021
:1039D40000FA02F2203341F8232000BF1437BD4619
:1039E40080BC704700E100E080B485B000AF0346BE
:1039F400FB71FB795B09FB73FB7903F01F03BB735A
:103A0400084AFB7B403352F82320BB7B22FA03F3A2
:103A1400DBB203F001037B737B7B18461437BD468E
:103A240080BC704700E100E080B485B000AF03467D
:103A3400FB71FB795B09FB73FB7903F01F03BB7319
:103A4400094AFB7B403352F82310BB7B01229A4086
:103A54000548FB7B0A43403340F8232000BF14375A
:103A6400BD4680BC704700BF00E100E080B485B073
:103A740000AF0346FB71FB795B09FB73FB7903F031
:103A84001F03BB73094AFB7B603352F82310BB7BD3
:103A940001229A400548FB7B0A43603340F8232007
:103AA40000BF1437BD4680BC704700BF00E100E092
:103AB40080B485B000AF0346FB71FB795B09BB732F
:103AC400FB7903F01F037B730B4ABB7B803352F8F3
:103AD40023207B7B22FA03F303F00103002B02D0A3
:103AE4000123FB7301E00023FB73FB7B18461437AF
:103AF400BD4680BC704700BF00E100E080B485B0E3
:103B040000AF03460A46FB711346BB71FB795B09A0
:103B1400FB73FB7903F01F03BB730749FB7B9A001C
:103B2400BB7B13440B44BA7983F8002300BF1437DA
:103B3400BD4680BC704700BF00E100E080B485B0A2
:103B440000AF0346FB71FB795B09FB73FB7903F060
:103B54001F03BB730649FB7B9A00BB7B13440B44D6
:103B640093F80033DBB218461437BD4680BC704767
:103B740000E100E080B400AF044BDB6803F4E062D2
:103B84000249034B1343CB6000BFFDE700ED00E0A7
:103B94000400FA0580B483B000AF0346FB71FB79DF
:103BA400022B5CD0022B5CDC002B02D0012B28D032
:103BB40057E02F4B1B682E4A43F00103136000BFEC
:103BC4002B4B1B6803F00203002BF9D0284B9B6896
:103BD400274A23F00303936000BF254B9B689B088F
:103BE40003F00303002BF8D1214B1B68204A23F474
:103BF400803313601E4B1B681D4A23F080731360CF
:103C040030E01B4B1B681A4A43F48033136000BF37
:103C1400174B1B6803F40033002BF9D0144B9B683B
:103C2400134A23F003039360114B9B68104A43F03B
:103C34000103936000BF0E4B9B689B0803F00303D2
:103C4400012BF8D10A4B1B68094A23F001031360C6
:103C5400074B1B68064A23F08073136002E000BF21
:103C640000E000BF00BF0C37BD4680BC704700BFFA
:103C74000038024080B483B000AF0346FB71FB7987
:103C8400112B00F2908001A252F823F0D93C0008D5
:103C9400E73C0008F53C0008033D0008113D00081E
:103CA400AB3D0008AB3D0008AB3D00081F3D0008DC
:103CB4002D3D00083B3D0008493D0008573D0008E4
:103CC400653D0008733D0008813D00088F3D0008F4
:103CD4009D3D0008374B1B6B364A43F001031363C9
:103CE40062E0344B1B6B334A43F0020313635BE023
:103CF400304B1B6B2F4A43F00403136354E02D4BEA
:103D04001B6B2C4A43F0080313634DE0294B1B6BD8
:103D1400284A43F01003136346E0264B5B6C254AA4
:103D240043F0100353643FE0224B1B6C214A43F4DD
:103D34000033136438E01F4B5B6C1E4A43F02003CE
:103D4400536431E01B4B5B6C1A4A43F48053536455
:103D54002AE0184B1B6C174A43F48043136423E096
:103D6400144B1B6C134A43F4001313641CE0114BF3
:103D74001B6C104A43F48003136415E00D4B1B6B5A
:103D84000C4A43F4805313630EE00A4B1B6C094A3C
:103D940043F00103136407E0064B5B6C054A43F4EC
:103DA4008043536400E000BF00BF0C37BD4680BCB5
:103DB400704700BF0038024080B483B000AF0346B0
:103DC400FB71FB79112B00F2908001A252F823F0D1
:103DD4001D3E00082B3E0008393E0008473E0008FF
:103DE400553E0008EF3E0008EF3E0008EF3E000895
:103DF400633E0008713E00087F3E00088D3E0008C7
:103E04009B3E0008A93E0008B73E0008C53E0008D6
:103E1400D33E0008E13E0008374B1B69364A43F0A5
:103E24000103136162E0344B1B69334A43F002031C
:103E340013615BE0304B1B692F4A43F004031361A9
:103E440054E02D4B1B692C4A43F0080313614DE0E9
:103E5400294B1B69284A43F01003136146E0264BA3
:103E64005B6A254A43F0100353623FE0224B1B6A0E
:103E7400214A43F40033136238E01F4B5B6A1E4A45
:103E840043F02003536231E01B4B5B6A1A4A43F44C
:103E9400805353622AE0184B1B6A174A43F4804349
:103EA400136223E0144B1B6A134A43F40013136296
:103EB4001CE0114B1B6A104A43F48003136215E0A3
:103EC4000D4B1B690C4A43F4805313610EE00A4BFB
:103ED4001B6A094A43F00103136207E0064B5B6A5D
:103EE400054A43F48043536200E000BF00BF0C372F
:103EF400BD4680BC704700BF0038024080B582B028
:103F040000AF104B9B689B0803F00303022B0CD0FB
:103F1400022B0ED8002B02D0012B03D009E00A4B50
:103F24007B6009E0094B7B6006E000F0D5F878601F
:103F340002E000237B6000BF7B6818460837BD465B
:103F440080BD00BF003802400024F40040787D01A9
:103F540080B500AFFFF7D2FF0246054B9B681B09F3
:103F640003F007030349CB5C22FA03F3184680BD30
:103F7400003802406463000880B584B000AF0023B9
:103F8400FB60274B9B681B0BDBB203F003037B72C4
:103F94007B7A002B02D1234BFB600BE07B7A012B55
:103FA40002D1214BFB6005E07B7A022B02D100F0A9
:103FB40093F8F8601A4B9B68F022D340DBB203F00D
:103FC4000F033B723B7A072B02D80123FB7205E0F7
:103FD4003B7A083B154A32F81330FB72104B9B684E
:103FE4004FF4E052D340DBB203F007033B723B7A59
:103FF400032B02D80123BB7204E03B7A043B0C4A36
:10400400D35CBB72FB7AFA68B2FBF3F2BB7AB2FB05
:10401400F3F37B607B6818461037BD4680BD00BF54
:10402400003802400024F40040787D014400002060
:104034005400002080B485B000AF0023FB60214B06
:104044009B681B0BDBB203F003037B727B7A002BB0
:1040540002D11D4BFB6001E01C4BFB60194B9B68BC
:10406400F022D34003F00F037B607B68072B02D858
:104074000123FB7205E07B68083B154A32F81330D4
:10408400FB72104B9B684FF46042D34003F007036C
:104094007B607B68032B02D80123BB7204E07B683E
:1040A400043B0C4AD35CBB72FB7AFA68B2FBF3F2B2
:1040B400BB7AB2FBF3F33B603B6818461437BD464A
:1040C40080BC7047003802400024F40040787D0131
:1040D400440000205400002080B487B000AF0023C7
:1040E4007B6100233B610023FB600023BB601B4B0F
:1040F4005B6847F6C072D340C3F308033B61174BB8
:104104005B683F22D34003F03F03FB60134B5B68C3
:104114004FF44032D34003F003030133BB600F4B31
:104124005B6803F48003002B02D00D4B7B6101E03C
:104134000C4B7B613B6901337A6903FB02F2FB6838
:104144000133B96801FB03F35B00B2FBF3F37B605B
:104154007B6818461C37BD4680BC70470038024057
:1041640040787D010024F40080B584B000AF78600D
:1041740039600023FB810023BB817B68364A93426C
:1041840006D1364A3B6813600B20FFF773FD05E048
:10419400324A3B6853600C20FFF76CFDFB8943F007
:1041A4004003FB813B681A88FB891343FB813B680E
:1041B4005A88FB891343FB813B68DA88FB891343E4
:1041C400FB813B689A88FB891343FB813B681A890E
:1041D400FB891343FB813B685A89FB891343FB81A9
:1041E4003B689B89042B04D1BB8943F00403BB8146
:1041F40008E03B689B89002B04D03B689A89FB89C3
:104204001343FB813B68DA89FB891343FB813B68D9
:104214001B8A002B15D03B681A8AFB891343FB8148
:104224007B680D4A934206D10D4B1B680C4A43F040
:104234000803136005E00A4B1B68094A43F01003A6
:1042440013607B68FA891A807B68BA899A8000BFF8
:104254001037BD4680BD00BF003001405C04002023
:1042640004E100E080B582B000AF78607B680D4A5D
:10427400934209D10C4B1B680B4A23F008031360CB
:104284000B20FFF799FD08E0074B1B68064A23F053
:10429400100313600C20FFF78FFD00BF0837BD46E5
:1042A40080BD00BF0030014084E100E080B485B0EF
:1042B40000AFF860B9601346FB71FB79002B07D19E
:1042C40000BFFB681B899BB203F00203002BF8D0EC
:1042D400BB681A88FB689A8100BF1437BD4680BC4E
:1042E400704780B485B000AFF860B9601346FB71C5
:1042F400FB79002B07D100BFFB681B899BB203F03D
:104304000103002BF8D0FB689B899AB2BB681A8022
:1043140000BF1437BD4680BC704780B586B000AF7F
:1043240078607B68654A93426BD1654B1B681B8838
:10433400042B45D1624B1B689B89002B14D0042BA2
:1043440025D102233B7202237B7204237B81022347
:10435400FB6000233B6105237B6107F108031946D9
:104364005848FEF733F912E002233B7202237B72B2
:1043740004237B810023FB6000233B6105237B61D5
:1043840007F1080319464F48FEF720F900BF05233B
:104394007B8107F1080319464A48FEF717F90623FB
:1043A4007B8107F1080319464648FEF70FF90723F6
:1043B4007B8107F1080319464248FEF707F979E0C3
:1043C40004237B8107F1080319463E48FEF7FEF8F3
:1043D40005237B8107F1080319463A48FEF7F6F8EE
:1043E40006237B8107F1080319463648FEF7EEF8E9
:1043F40007237B8107F1080319463248FEF7E6F8E4
:1044040058E02F4B5B681B88042B33D12C4B5B6823
:104414009B89002B0AD0042B13D10C237B8107F139
:10442400080319462848FEF7D1F80AE00C237B81DB
:104434000023FB6007F1080319462348FEF7C6F87A
:1044440000BF0D237B8107F1080319461E48FEF7C0
:10445400BDF80E237B8107F1080319461A48FEF7BD
:10446400B5F80F237B8107F1080319461648FEF7B8
:10447400ADF81FE00C237B8107F1080319461248AD
:10448400FEF7A4F80D237B8107F1080319460E48B3
:10449400FEF79CF80E237B8107F1080319460A48AE
:1044A400FEF794F80F237B8107F1080319460648A9
:1044B400FEF78CF800BF1837BD4680BD00300140C0
:1044C4005C040020000002400004024080B485B077
:1044D40000AFF860B9601346FB71FB79002B07D17C
:1044E40000BFFB681B899BB203F00203002BF8D0CA
:1044F400BB681A88FB689A81FB79002B07D100BF3F
:10450400FB681B899BB203F00103002BF8D0FB6806
:104514009B899AB2BB681A8000BF1437BD4680BC21
:10452400704780B582B000AF144B1B899BB25B10FF
:1045340003F00103DAB23B7962F300033B710F4BE2
:104544001B899BB203F00103DAB23B7962F34103A6
:104554003B710A4B1B899BB21B1103F00103DAB2B6
:104564003B7962F382033B71054B1B685B693879C5
:10457400984700BF0837BD4680BD00BF00300140EA
:104584005C04002080B582B000AF144B1B899BB241
:104594005B1003F00103DAB23B7962F300033B7171
:1045A4000E4B1B899BB203F00103DAB23B7962F331
:1045B40041033B71094B1B899BB21B1103F001039F
:1045C400DAB23B7962F382033B71054B5B685B694A
:1045D4003879984700BF0837BD4680BD0038004091
:1045E4005C04002080B584B000AF78607B689B7861
:1045F40003F00203DAB27B689A707B685B7803F09D
:104604000403DAB27B685A707B689A787B685B78BB
:104614001343DBB2FB600C4AFB6813607B685B6886
:10462400184600F015F87B689B78022B04D17B6850
:104634009B68184600F01EF87B681A78034B1A70C2
:1046440000BF1037BD4680BD10E000E068040020C4
:1046540080B483B000AF78607B6823F07F437B60D5
:10466400034A7B68536000BF0C37BD4680BC70476B
:1046740010E000E080B483B000AF7860034A7B6848
:10468400136000BF0C37BD4680BC70476404002033
:1046940080B400AF064B00229A60054B1B68044AA5
:1046A40043F00103136000BFBD4680BC704700BFE8
:1046B40010E000E080B400AF044B1B68034A23F011
:1046C4000103136000BFBD4680BC704710E000E0EA
:1046D40080B584B000AF7860174B5B68FB60164B05
:1046E4001B68BB60144B00221A60134B1B68124AF0
:1046F40003F4803313607B68013B1846FFF7A8FF7F
:104704000D4B1B680C4A43F004031360FFF7C0FF12
:1047140000BF094B1B6803F48033002BF9D0FFF76B
:10472400C9FF054AFB685360034ABB68136000BFB6
:104734001037BD4680BD00BF10E000E080B584B0F6
:1047440000AF786041F63F73BB600023FB6005E077
:10475400B868FFF7BDFFFB680133FB60FA687B684C
:104764009A42F5D300BF00BF1037BD4680BD00BFDD
:1047740080B400AF134B1B6C124A43F00103136463
:104784004FF0804307221A854FF080434CF2503299
:10479400DA624FF080431B889BB24FF0804243F0B3
:1047A40001039BB2138000BF4FF080431B8A9BB26E
:1047B40003F00103002BF7D000BF00BFBD4680BC4F
:1047C400704700BF0038024080B483B000AF786007
:1047D4004FF0804300225A6200BF4FF080435A6A70
:1047E4007B689A42F9D300BF00BF0C37BD4680BC3A
:1047F400704780B584B000AF78600023FB6000236D
:10480400FB6006E04FF47A70FFF7DEFFFB680133CC
:10481400FB60FA687B689A42F4DB00BF00BF103784
:10482400BD4680BDB0B584B000AF786039607B68A8
:10483400654A93420DD10820FFF71CFA634A3B688E
:1048440014461D460FCD0FC495E8070084E8070001
:1048540024E07B685E4A93420ED10920FFF70AFAEE
:104864005A4B3A6803F11C0415460FCD0FC495E862
:10487400070084E8070011E07B68564A93420DD193
:104884000A20FFF7F7F9514B3A6803F1380415464B
:104894000FCD0FC495E8070084E807007B689B8967
:1048A4009BB243F400539AB27B689A817B689B89DC
:1048B4009BB23A68127813439AB27B689A817B68F8
:1048C4009B899BB23A68127A13439AB27B689A81A5
:1048D4007B689B899AB23B68DB689BB213439AB2AC
:1048E4007B689A817B681B8A9AB23B681B699BB27E
:1048F40013439AB27B681A827B689B8A9BB23A689C
:10490400127D13439AB27B689A827B682E4A934243
:1049140003D1FFF78FFBF86002E0FFF72DFBF8608F
:104924003B685B681B01FA68B2FBF3F31901FA6890
:1049340013469B0013449A001A443B685B689B002F
:10494400B2FBF3F23B685B681B01F868B0FBF3F35E
:10495400642000FB03F3D31A1B011F4AA2FB0323A9
:104964005B0903F00F030B43BB60BB689AB27B681F
:104974001A813B685B7D002B1FD07B689B899BB2AF
:104984003A68527D13439AB27B689A817B680E4AD7
:10499400934203D12520FEF7EFFF0EE07B680C4A1B
:1049A400934203D12620FEF7E7FF06E07B68094A1D
:1049B400934202D14720FEF7DFFF786800F03CF80D
:1049C40000BF1037BD46B0BD001001406C0400208C
:1049D40000440040001401401F85EB5180B582B0B3
:1049E40000AF78607B68114A934206D10820FFF734
:1049F400E3F92520FEF7DCFF14E07B680C4A9342C0
:104A040006D10920FFF7D8F92620FEF7D1FF09E0E7
:104A14007B68084A934205D10A20FFF7CDF9472065
:104A2400FEF7C6FF00BF0837BD4680BD0010014039
:104A3400004400400014014080B586B000AF7860A7
:104A44007B68404A934225D10020FFF713F90923DC
:104A54007B8102233B7200233B610023FB60022322
:104A64007B7207237B6107F1080319463648FDF77B
:104A7400ADFD0A237B8102233B720123FB600223E9
:104A84007B7207237B6107F1080319462E48FDF763
:104A94009DFD52E07B682D4A934225D10020FFF70B
:104AA400E9F802237B8102233B7200233B6100234C
:104AB400FB6002237B7207237B6107F1080319461D
:104AC4002148FDF783FD03237B8102233B720123ED
:104AD400FB6002237B7207237B6107F108031946FD
:104AE4001948FDF773FD28E07B68194A934224D1E5
:104AF4000220FFF7BFF806237B8102233B720023C9
:104B04003B610023FB6002237B7208237B6107F176
:104B1400080319460F48FDF759FD07237B8102233B
:104B24003B720123FB6002237B7208237B6107F144
:104B3400080319460748FDF749FD00BF1837BD466D
:104B440080BD00BF0010014000000240004400404E
:104B5400001401400008024080B485B000AFF86042
:104B6400B9601346FB71FB79002B07D100BFFB68CA
:104B74001B889BB203F08003002BF8D0FB68124A19
:104B8400934206D1BB681B88DBB29AB2FB689A8059
:104B940014E0FB680D4A934206D1BB681B88DBB264
:104BA4009AB2FB689A8009E0FB68094A934205D1EE
:104BB400BB681B88DBB29AB2FB689A8000BF1437CB
:104BC400BD4680BC704700BF001001400044004057
:104BD4000014014080B586B000AFF860B960134698
:104BE400FB71FB79002B1DD00023FB750AE0FB7DD4
:104BF400BA68134400221946F868FFF7ADFFFB7D3D
:104C04000133FB75FA7DFB799A42F0D30EE0002262
:104C1400B968F868FFF7A0FFF86800F0A3F8BB686C
:104C24000133BB60BB681B78002BF0D100BF183781
:104C3400BD4680BD80B485B000AFF860B96013464E
:104C4400FB71FB79002B07D100BFFB681B889BB26B
:104C540003F02003002BF8D0FB68244A934212D1BE
:104C6400234BDB68002B05D1FB689B889BB2DBB22E
:104C74009BB205E0FB689B889BB203F07F039BB269
:104C8400BA6813802CE0FB681A4A934212D1184B7D
:104C94009B6A002B05D1FB689B889BB2DBB29BB25D
:104CA40005E0FB689B889BB203F07F039BB2BA6864
:104CB400138015E0FB68104A934211D10C4B5B6CD6
:104CC400002B05D1FB689B889BB2DBB29BB205E04D
:104CD400FB689B889BB203F07F039BB2BA68138086
:104CE40000BF1437BD4680BC704700BF00100140B0
:104CF4006C040020004400400014014080B586B0DC
:104D040000AFF860B9601346FB71FB79002B13D038
:104D14000023FB750BE0FB7D5B00BA6813440022A3
:104D24001946F868FFF786FFFB7D0133FB75FA7DB2
:104D3400FB799A42EFD311E007F1160300221946DA
:104D4400F868FFF777FFBB7D0D2B06D0B97DBB68F4
:104D54009A1CBA600A461A80EEE700BF00BF1837F3
:104D6400BD4680BD80B483B000AF786000BF7B686F
:104D74001B889BB203F04003002BF8D000BF00BF98
:104D84000C37BD4680BC704780B500AF2520FEF7C8
:104D94006DFE044B9B69002B02D0024B9B69984724
:104DA40000BF80BD6C04002080B500AF2620FEF754
:104DB4005DFE044B5B6B002B02D0024B5B6B984790
:104DC40000BF80BD6C04002080B500AF4720FEF713
:104DD4004DFE044B1B6D002B02D0024B1B6D9847FC
:104DE40000BF80BD6C04002080B483B000AF0346D4
:104DF4003960FB7197F90730002B0BDA3B68DAB2A4
:104E04000C49FB7903F00F03043B1201D2B20B44AB
:104E14001A7609E03B68DAB2074997F907301201BC
:104E2400D2B20B4483F8002300BF0C37BD4680BCCC
:104E3400704700BF00ED00E000E100E080B400AF87
:104E440000BFFDE780B400AF00BFFDE780B400AF52
:104E540000BFFDE780B400AF00BFFDE71EF0040F04
:104E64000CBFEFF30880EFF3098000F0C9BB00BF6B
:104E740080B500AF0F216FF00100FFF7B5FF00BF51
:104E840080BD80B400AF054B5B68044A43F0805397
:104E9400536000BFBD4680BC704700BF00ED00E01A
:104EA40080B400AF00BFBD4680BC704780B500AF82
:104EB400074B1B7883F00103DAB2054B1A7000F03C
:104EC4005BFC00F04BFBFFF7DCFF00BF80BD00BFC5
:104ED400C004002080B485B000AFF860B9607A6087
:104EE400BB68002B01D1032311E0FB68BA68DA60C8
:104EF400FB68DA68FB685A60FB68DA68FB689A60EA
:104F0400FB687A681A61FB6800221A60002318465D
:104F14001437BD4680BC704780B483B000AF78605E
:104F240039607B68DB68002B03D07B681B69002B2E
:104F340001D103232DE07B685A687B689B689A4201
:104F440007D17B681A687B681B699A4201D10123E7
:104F54001FE07B689B683A681A607B681B685A1C70
:104F64007B681A607B689B687A68D26811467A68A5
:104F7400126992000A44043A934204D17B68DA68C5
:104F84007B689A6004E07B689B681A1D7B689A6062
:104F9400002318460C37BD4680BC704780B483B0EC
:104FA40000AF786039607B68DB68002B03D07B68D6
:104FB4001B69002B01D1032328E07B685A687B68B6
:104FC4009B689A4201D1022320E07B685B681A68DF
:104FD4003B681A607B681B685A1E7B681A607B6892
:104FE4005B687A68D26811467A68126992000A444A
:104FF400043A934204D17B68DA687B685A6004E01F
:105004007B685B681A1D7B685A60002318460C375E
:10501400BD4680BC704780B483B000AF78607B68C5
:105024005B68002B07D07B68DB68002B03D07B68B0
:105034009B68002B01D1032308E07B681A687B6816
:105044001B699A4201D1012300E0002318460C3762
:10505400BD4680BC704780B483B000AF786000BFA9
:105064000C37BD4680BC70476F4BD3F8A031EFF3CB
:10507400098002469A616C4BD3F8A0319A69043ACC
:105084009A61694BD3F8A0319B6922461A60664B3A
:10509400D3F8A0319A69043A9A61634BD3F8A031EA
:1050A4009B692A461A60604BD3F8A0319A69043A86
:1050B4009A615D4BD3F8A0319B6932461A605A4B12
:1050C400D3F8A0319A69043A9A61574BD3F8A031C6
:1050D4009B693A461A60544BD3F8A0319A69043A52
:1050E4009A61514BD3F8A0319B6942461A604E4BEA
:1050F400D3F8A0319A69043A9A614B4BD3F8A031A2
:105104009B694A461A60484BD3F8A0319A69043A1D
:105114009A61454BD3F8A0319B6952461A60424BC1
:10512400D3F8A0319A69043A9A613F4BD3F8A0317D
:105134009B695A461A603C4BD3F8A431002B09D022
:10514400394BD3F8A431384AC2F8A031364B002287
:10515400C3F8A421344BD3F8A0319B691B689B4648
:10516400314BD3F8A0319A6904329A612E4BD3F8AB
:10517400A0319B691B689A462B4BD3F8A0319A69DE
:1051840004329A61284BD3F8A0319B691B68994675
:10519400254BD3F8A0319A6904329A61224BD3F893
:1051A400A0319B691B6898461F4BD3F8A0319A69BC
:1051B40004329A611C4BD3F8A0319B691B681F46CB
:1051C400194BD3F8A0319A6904329A61164BD3F87B
:1051D400A0319B691B681E46134BD3F8A0319A6912
:1051E40004329A61104BD3F8A0319B691B681D46A9
:1051F4000D4BD3F8A0319A6904329A610A4BD3F863
:10520400A0319B691B681C46074BD3F8A0319A69EF
:1052140004329A61044BD3F8A0319B69184680F399
:105224000988704700BF00BFC404002080B400AFE9
:10523400044B1B7883F00103DAB2024B1A7030BFBF
:1052440000BFF5E75808002080B400AF0B4A0C4BB0
:10525400C3F890210A4BD3F89031A3F54063084A70
:10526400C2F89431064BD3F89431083B044AC2F88F
:10527400983100BFBD4680BC704700BF008001204C
:10528400C404002080B582B000AF0023FB71164B2C
:10529400002283F8A821FFF7D7FF6422134914489A
:1052A400FFF718FE0346002B02D0FB790133FB7194
:1052B400104B114A07CA03C31A70104BFF221A710C
:1052C4000E4B0F4A9A600D4B4FF496721A600B48BE
:1052D40000F057F803461A46FB791344FB71FB7937
:1052E40018460837BD4680BDC4040020840600204B
:1052F40070060020300800207463000814080020A1
:105304003152000880B485B000AF78607B681B69B7
:105314001A467B689A617B689B691A1F7B689A614D
:105324007B689B694FF080721A607B689B691A1FC7
:105334007B689A617B689A687B689B691A607B6862
:105344009B691A1F7B689A617B689B696FF00202F4
:105354001A600023FB600BE07B689B691A1F7B6863
:105364009A617B689B6900221A60FB680133FB60C9
:10537400FB680C2BF0DD00BF00BF1437BD4680BCBA
:10538400704780B584B000AF78600023FB73194B7D
:10539400D3F898217B681A617B681A697B681B685B
:1053A400D21A7B685A617B685B69134A934201D2C3
:1053B40002231BE07B685B69083B0E4AC2F8983104
:1053C4007868FFF79FFF0B4BD3F89C3109497A6843
:1053D40041F82320074BD3F89C310133054AC2F826
:1053E4009C317B68002283F83A20FB7B18461037F7
:1053F400BD4680BDC4040020B00F002080B485B039
:1054040000AF214BD3F89C317B600023FB6030E07C
:105414000023BB6023E01C4ABB6852F823301A798E
:10542400BB680133184951F823301B799A4213D9C8
:10543400154ABB6852F823303B60BB680133124AFB
:1054440052F823201049BB6841F82320BB6801337C
:105454000D493A6841F82320BB680133BB607A6880
:10546400FB68D31A013BBA689A42D4D3FB68013370
:10547400FB607B68013BFA689A42C9D300BF00BF56
:105484001437BD4680BC7047C404002080B584B086
:1054940000AF00233B600023FB60FFF7AFFF00BFBA
:1054A4003B4619462B48FFF779FD0346022BF7D1FB
:1054B40044E0294AFB6852F82330BB60FB6801339F
:1054C400254A52F823307B60BB6893F83A30002BAE
:1054D40031D07B6893F83A30002B08D1B9681D4865
:1054E400FFF71AFDBB68032283F83A202EE0BB685D
:1054F4001A797B681B799A4208D2B9681548FFF774
:105504000BFDBB68032283F83A201FE0BB681A79BD
:105514007B681B799A4208D1B9680E48FFF7FCFCF6
:10552400BB68032283F83A2005E0BB681A797B68DC
:105534001B799A4209D8FB680133FB60064BD3F808
:105544009C31FA689A42B4D300E000BF00BF103720
:10555400BD4680BD70060020C404002080B500AFA5
:10556400244B1B68002B1AD1234BD3F8A03193F89A
:105574003A30002B13D0204BD3F8A031012283F80A
:105584003A201D4BD3F8A03119461A48FFF7C4FC42
:10559400194BD3F8A031184AC2F8A43127E01749AF
:1055A4001448FFF7FBFC144BD3F8A431012283F811
:1055B4003A20114BD3F8A0311A790F4BD3F8A43108
:1055C4001B799A4213D10C4BD3F8A03193F83A309B
:1055D400002B0CD0084BD3F8A03119460548FFF72F
:1055E4009BFC054BD3F8A031032283F83A2000BF7B
:1055F40080BD00BF70060020C4040020680600209F
:1056040080B584B000AF78607B6818331B68023BB8
:105614001B78FB73FB7B012B02DC002B03DA1DE000
:10562400022B17D01AE0FFF731FF0E4B93F8A83185
:10563400012B12D10B4BD3F8A0311C330A49184665
:1056440000F01EF90346002B07D0FFF787FFFFF792
:1056540018FC02E0FFF71AFF00E000BF00BF10379C
:10566400BD4680BDC40400207463000880B483B0C8
:1056740000AF0346FB71FB79042B17D801A252F843
:1056840023F000BF9D560008A1560008A556000847
:10569400A9560008AD56000800DF07E001DF05E069
:1056A40002DF03E003DF01E004DF00BF00BF0C37CB
:1056B400BD4680BC704780B582B000AF78607B681F
:1056C400022283F83A200020FFF7D0FF00BF0837FA
:1056D400BD4680BD80B582B000AF78607B68002293
:1056E40083F83A200120FFF7C1FF00BF0837BD4609
:1056F40080BD80B582B000AF786039603B6800221D
:1057040083F83C203B687A681A643B68002283F87B
:105714003A200120FFF7AAFF00BF0837BD4680BD2D
:1057240080B500AF124B012283F8A821104B114A17
:10573400C3F8A0210F48FFF7BEFF0D4BD3F8A031EB
:105744009B69184680F30988EFF314804FF0020137
:1057540040EA010080F31488EFF3148343F001035B
:1057640083F31488034B9B68984700BF80BD00BF38
:10577400C40400201408002080B582B000AF0023C8
:105784007B6031E01E4A7B6852F8233093F83A304C
:10579400002B26D11A4A7B6852F8233093F83C3008
:1057A400002B1ED1164A7B6852F823301A6C013A3A
:1057B4001A64134A7B6852F823301B6C012B10D1F6
:1057C4000F4A7B6852F82330012283F83C200C4AAC
:1057D4007B6852F82330022283F83A200220FFF734
:1057E40045FF7B6801337B60054BD3F89C317A68B5
:1057F4009A42C7D300BF00BF0837BD4680BD00BF73
:10580400C404002080B582B000AF786039607B6842
:105814009B68002B03D17B683A689A6010E07B6830
:10582400DB68002B0AD17B683A68DA603B680022A7
:1058340083F83A200120FFF719FF01E0032300E079
:10584400002318460837BD4680BD80B582B000AF3E
:1058540078607B689B68002B0ED07B68DA687B6875
:105864009A607B680022DA607B689B68022283F876
:105874003A200020FFF7FAFE00BF0837BD4680BD7E
:1058840010F8012B11F8013B012A28BF9A42F7D0E6
:10589400D01A7047002103E00A4B5B58435004318F
:1058A40009480A4B42189A42F6D3094A02E00023F7
:1058B40042F8043B074B9A42F9D3FBF7DBFFFBF7B3
:1058C4007BFD7047B463000800000020B400002092
:1058D400B4000020AC090020FEE7000008B5064B28
:1058E400044613B10021AFF30080044B1B6803B1DD
:1058F40098472046FBF7A3FE00000000940900200F
:10590400002310B50446C0E90033C0E904338360C2
:1059140081814366C2818361194608225C3000F0AC
:105924007CF90D4B63620D4BA3620D4BE3620D4B8F
:1059340023630D4B24629C4206D003F16802944217
:1059440002D0D0339C4205D104F15800BDE8104088
:1059540000F033BA10BD00BF955B0008BB5B0008C4
:10596400F35B0008175C00085C080020024A034946
:10597400034800F0EFB800BF58000020C5600008DD
:105984006800002041680C4B994210B5044601D0D0
:1059940000F096FBA168094B994202D0204600F022
:1059A4008FFBE168064B994204D02046BDE81040C5
:1059B40000F086BB10BD00BF5C080020C4080020B6
:1059C4002C09002008B54B6EDA0705D48B899B059A
:1059D40002D4886D00F0F5F9002008BD08B54B6EBF
:1059E400DA0705D48B899B0502D4886D00F0EFF9A2
:1059F400002008BD10B50B4B0B4C0C4A1A60204616
:105A040000220421FFF77CFF04F168000122092130
:105A1400FFF776FF04F1D0000222BDE81040122106
:105A2400FFF76EBF940900205C080020715900083C
:105A3400014800F0C6B900BFA3090020014800F0E6
:105A4400C6B900BFA3090020F8B50746FFF7F0FF69
:105A5400234B1B680BB9FFF7CDFF224ED6E9013467
:105A6400013B0FD53568002D37D14FF4D671384638
:105A740000F01AFA044628BB3060FFF7DFFF0C235E
:105A84003B601BE0B4F90C50D5B9174BE36004F14B
:105A94005800656600F091F9FFF7D0FFC4E901559D
:105AA400C4E904552560A5610822294604F15C0077
:105AB40000F0B3F8C4E90D55C4E912552046F8BD09
:105AC4006834CDE70423056043600C30A0604FF4D4
